:0200000400807A
:20D00000050001019327481B482000006D67DEF13E33E811B1024D2DF40CDE0100E4800007
:20D0200000E480000000000000E0800000000000000000000000000000000000000000002C
:20D040000000000000000000000000000000000000000000000000000000000000000000D0
:20D0600001200000A8AC832A73646B2323232323E57C0BF3B165A45A713EE7473DDE983B5F
:20D08000C5135EA0F79B33C54E2AD229DD513874C7B8028F841BF2004B74A679473A37327A
:20D0A000B6FEDA840C75C18452A2F5E94F587FE8AD4B0A5ED68332C0268C0FA017267B27CD
:20D0C000FC7210AC10EC0AC0AC19B8DB4C0DDFB7D69F597AF554F2FAF778497BC7CF1A7F3A
:20D0E0006038EC9A83B481153465BFCFE65DBE2BEADE61820ACE895F9C804A478CD53584C0
:20D1000058BBAD3DD64DA07FF1C5BBC9577C1DD2E3A46A2AF75332E8C014B1D06B62DC490E
:20D1200096B456F6136F26D87350B308D6D65654ACC00EBC25080E57A7415D694B24C30E4F
:20D14000AE3F5A16B34E6A4AB148BD01A9CCA33F66254BF06C3D2E19ACA643BB7BFCEB4205
:20D16000DDC3779C468C5E670468710F07B41FF500010001FFFFFFFFFFFFFFFFFFFFFFFFB4
:20D18000FFFFFFFFFFFFFFFFFFFFFFFFFFFFFFFFFFFFFFFF000000000000000000000000A3
:20D1A00000000000000000000000000000000000000000000000000000000000000000006F
:20D1C00000000000000000000000000000000000000000000000000001D1850E5C942000DA
:20D1E0004DE1E936C8656D1F13467E113C69A0E2699C8B1611410D2B8A926F4054F8A184AE
:20D200009B3AA699A69213DAF682D9A40D3D367E939E7E0EFE0DEE107BD92176759DBB4D17
:20D22000D0F0F53C6A1927FB663896DD724DA2E97E8C5612EE3ADAE4B0BCB72DFC48EFD34F
:20D240001BC7F51CF6582BB2CE850DB05A951CB55101CC75BB2E76C5FB6279C72DC5E5FFB6
:20D260002E278AF553031C2913B620986B8923BC643554E5A047A607C480521116344268EA
:20D28000530A2E62A6FC2AB999B061B36092018F34C7612C7BAB1B6C0F0D7F95F61C502650
:20D2A0008B8148D34F88E6719171A83A946B48C2676D3E03B2B07F2A7398D1775A2AC6333C
:20D2C000A1247446F92BDE21D708B431B117E268D18A785415189FD28ACD4A50D3EF463EDA
:20D2E000FFFFFFFFFFFFFFFFFFFFFFFFFFFFFFFFC30EB161216082AF8AA5B7F52B3B0193D4
:20D30000B5DAE87E3906ECC6C275CA131C445AFA44F97E813157AA1682D9FE37FCFF42A767
:20D3200016CA5872D6ABAD5D4D5435CBD3223608D2FA82C1AFAAE525F94AAAF6906DE97831
:20D340005F671F0034B89B63C1B9DE10AD7DE97457F0AAC8F09AFA099D33812ADEC203515A
:20D3600088CC5758FACF4ECE3836D87D45490EC747E5771E76003BF69968216F4364E6A574
:20D3800067B9B6F5FDDB2E3CB6035EDAE1327523218EAC3CC583652FB65AC156CE7D2C874C
:20D3A0008B4DBD703CCD8A63EEB73B526BD07990893687F7326E030121EF2961EBCD764C07
:20D3C0007B02745E7A5A473F2C95EECD1289D7A201D645CB4B54446622ED1F61BBC1AE0B20
:20D3E000FC3B0B48FADF9B526D103D2E02279D8EFFFFFFFFFFFFFFFFFFFFFFFFFFFFFFFFB1
:20D40000004800470BE5800000F002F8F9F5FCF30AA090E8000C82448344AAF10107DA45C9
:20D4200001D1F9F5F1F3AFF2090EBAE80F0013F0010F18BFFB1A43F001031847D401000075
:20D4400014020000103A24BF78C878C1FAD8520724BF30C830C144BF04680C607047000087
:20D460000023002400250026103A28BF78C1FBD8520728BF30C148BF0B6070474549602075
:20D4800081F8140D44480168444A114301604448016841F001010160704710B5414A42499F
:20D4A00042484BF4FAF4424A424943484BF4F5F4424943484BF4B2F5BDE81040414A4249E4
:20D4C00042484BF4EAB438B572B6FFF7E6FF0020F9F598F73EA11F204BF48CF44FF00555E2
:20D4E0003CA12846F9F7C1DC044641A12846F9F7BCDC03460222404940480094F9F7AFDAA7
:20D50000FBF5D0F1BDE83840B8E7AFF245003C4908603D493B4808604FF400104FF40C4177
:20D52000C0F884134FF4F041C0F888133749C0F8CC1390F84D1321F0080180F84D130621BD
:20D5400080F84F1390F8781341F0260180F8781390F89A1321F0010180F89A1390F8341347
:20D5600041F0010180F8341390F87A1321F0100141F0C00180F87A13B42180F820133C21AE
:20D5800080F82113642180F82213FF2180F82313704700000CE000E0FCED00E00000010191
:20D5A000001000E0981B000044E78000007C2000AC000000DC0281009897200060000000C7
:20D5C00044982000000000004804810000C021004300000046726920536570203231203121
:20D5E000333A30313A3137203230313800000000312E302E322E30000000800800031021C7
:20D60000380C2000917D20003C0C20000300AAA250E6800000002000F400000044E480004F
:20D6200044E78000007C2000981B000044E48000DC02810098972000AC00000044E4800046
:20D6400088038100449820006000000060E480000038200001E48000417D2000417D200025
:20D66000417D2000417D2000417D200000000000000000000000000000000000417D200032
:20D68000417D200000000000417D2000417D2000417D2000417D2000417D2000417D200078
:20D6A000417D2000417D2000417D2000417D2000417D2000417D2000417D2000417D20007A
:20D6C000417D2000417D2000417D2000417D2000417D2000417D20000B852000417D200088
:20D6E000417D2000417D2000417D2000417D2000417D2000417D20001D7C2000697C200038
:20D70000417D2000B57C2000F97C2000417D2000417D2000417D2000417D2000417D2000EF
:20D72000417D2000417D2000417D2000417D2000417D2000417D2000417D2000417D2000F9
:20D74000417D20001FB501F020FC1FBD00F0A2F81146FFF7F7FF00F093FC53F605F900009B
:20D76000474810B5046C200701D500F08BF8200601D500F087F8200501D500F083F8200480
:20D7800001D500F07FF8200301D500F07BF8200201D500F077F8200101D500F073F8002C1B
:20D7A00003DABDE8104000F06DB810BD344810B5046C600701D500F065F8600601D500F04E
:20D7C00061F8600501D500F05DF8600401D500F059F8600301D500F055F8600201D500F057
:20D7E00051F8600101D500F04DF8600003D5BDE8104000F047B810BD214810B5046CA00746
:20D8000001D500F03FF8A00501D500F03BF8A00401D500F037F8A00301D500F033F8A0029E
:20D8200001D500F02FF8A00101D500F02BF8A00003D5BDE8104000F025B810BD104810B54D
:20D84000046CE00701D000F01DF8E00501D500F019F8E00401D500F015F8E00301D500F07F
:20D8600011F8E00201D500F00DF8E00101D500F009F8E00003D5BDE8104000F003B810BD25
:20D88000001000404FF000501049EFF30582104B9847FEE770474572726F722120506C65A5
:20D8A00061736520696D706C656D656E7420796F7572204953522048616E646C65722066E3
:20D8C0006F7220495251202564210A00527D2000B179000010B54FF4001090F89B1341F0EF
:20D8E000800180F89B1390F8DC02C1074FF0045003D019A1FFF5FEFD06E01AA1FFF5FAFDB8
:20D9000009F6C1FD1EF6FFFCBDE8104000F0B8BB40EA01210120FFF565BA10B54FF4001447
:20D92000002294F84C1360F3010184F84C13114645F2020004F63FF9002805D194F84C13FF
:20D9400021F0030184F84C1310BD114A1268002A00D0104770470000496E20536F43204DE4
:20D960006F6465005741524E494E473A20496E20484349204D6F64652C2077696C6C206E1D
:20D980006F742072756E20415050205461736B0044982000F0B54FF490777B06C0F3816675
:20D9A000C1F341754FF4A07E40EA0104012A06D0B9426FD071456DD010296BD04BE0A1F10E
:20D9C000C04CBCF1400C18D0B1F1C24F20D0A1F1C04CBCF1100C03D0DFF8F0C2614524D159
:20D9E000D3F80CC24CF0806CC3F80CC2D3F80CC24CF0006CC3F80CC227E0D3F80CC24CF037
:20DA0000806CC3F80CC2D3F80CC24CF0005CF1E7D3F80C4244F08064C3F80C42D3F80C4235
:20DA200044F08054C3F80C4215E0DFF8A4C261450BD1D3F860C34CF4007CC3F860C3D3F8CE
:20DA400048C34CF0100CC3F848C3B9421DD071451BD0102919D020F0406321F0C0404FEAF5
:20DA6000860101F18041012AD1F8102218D09A43C1F81022A90001F18041D1F82C2282435E
:20DA800022EA4000C1F82C02F0BDD3F82002204303E0FFE7D3F82002A043C3F82002F0BD33
:20DAA0001A43C1F81022A90001F18041D1F82C22024342EA4000E5E7864B4FF08042984282
:20DAC00016D1D2F8340220F48030C2F83402D2F85C0320F4C010C2F85C03D2F85C0340EA32
:20DAE000C140C2F85C03D2F8340240F4803018E0794B984217D1D2F8340220F48020C2F83C
:20DB00003402D2F85C0320F4C000C2F85C03D2F85C0340EA4150C2F85C03D2F8340240F488
:20DB20008020C2F8340270476C4B9A04984216D1D2F8380220F00100C2F83802D2F85C0356
:20DB400020F4C030C2F85C03D2F85C0340EAC130C2F85C03D2F8380240F0010018E0604B73
:20DB6000984217D1D2F8380220F00400C2F83802D2F85C0320F4C020C2F85C03D2F85C0378
:20DB800040EA4140C2F85C03D2F8380240F00400C2F838027047534B5A04984218D1D2F855
:20DBA000340220F00100C2F83402D2F85C0320F4C060C2F85C03D2F85C0340EA4120C2F84A
:20DBC0005C03D2F8340240F00100C2F834027047454B9842FBD1D2F8300220F48050C2F83E
:20DBE0003002D2F85C0320F4C050C2F85C03D2F85C0340EAC120C2F85C03D2F8300240F410
:20DC00008050C2F83002704730B54FF4A0742306C0F341724FF49075012906D0A8421ED0A6
:20DC2000A0421CD010281AD005E0A84213D0A04211D010280FD001294FEA820101F18041CF
:20DC400020F0C040D1F82C220FD0824322EA4000C1F82C0230BDD3F82012014302E0D3F8EB
:20DC600020128143C3F8201230BD024342EA4000EEE7C0F381624FF08043012906D002288C
:20DC80001CD004281AD0012818D005E0022811D004280FD001280DD001294FEA820101F198
:20DCA000804120F04060D1F810220DD08243C1F810227047D3F82012014302E0D3F8201294
:20DCC0008143C3F8201270470243F0E7000001600040002000300140003401400050014088
:20DCE0000054014000200140001001402DE9F04105464FF488770C460026384636F624FEC5
:20DD000040F00401384636F62FFEE86820F01F00E860616CA06BA28F0843A16C41EA821111
:20DD200008432865A06B48B9286DE18FB4F842200843B4F84010114308432865A8686FF307
:20DD40000F00A86004EB860005EB8601D0F80A000861761CF6B2082EF4D3608DA860E088F1
:20DD6000A188A27808436178090541EA8231084394F8341040EAC160686094F83500216BD5
:20DD800094F83620084394F82C10490741EA02410843217808436865A86D40F44060A865DE
:20DDA000686840F080606860E86840F4F850E860BDE8F081802101700021C1804FF4005288
:20DDC000828080F82C1080F83410016380F8351080F8361041818181C181018241828182A3
:20DDE000C182018341838183C183018441848184C1840185418506224270012282704164DC
:20DE0000816382873022C2870C22A0F840200322A0F842208164704700224FF0C2414748A6
:20DE2000FFF7B8BD002AC26801D00A4300E08A43C2607047CA074FEA510100EB8100006B4C
:20DE400001D0000C704780B2704770B50E460446012A03D0606820F0030023E0206DC00257
:20DE60001AD5206D40F470502065354D502029688847206D40F44040206529684FF4A070B1
:20DE80008847206D40F4403020652968F0208847206D40F480202065606820F0030060600C
:20DEA00060683043606070BDCB074FEA510100EB8101086902D040EA024000E01043086125
:20DEC000704702E0036821F8023B521E92B2F9D270471C4B012210308240986D09B1104314
:20DEE00000E090439865704708B50B4600228DF8002001466A46184600F0E6F9BDEEC00A4D
:20DF000010EE100A01B29DF90000002800D1084608BD10B54FF488740028204604D036F602
:20DF200013FD40F0040103E036F60EFD20F004012046BDE8104036F617BD00000100000C05
:20DF4000540120000000014010B5032801D3002010BD1A4900EBC00001EB80040822184951
:20DF6000206851F6F1FC98B1A2696168E06851F636FDE269A168206951F631FD216A606960
:20DF800051F6EEFD20680E4902680A6040684860012010BD70B5094D002404EBC4000822E2
:20DFA00055F82000064951F6CFFC20B1641C032CF3DB032070BDE0B270BD000098972000E7
:20DFC000489820001CB5002000900346014601900122152008F6A4FFBDE81C40002115204F
:20DFE00008F66ABF30B52D4D97B02846FFF714FF01224FF0C2412A48FFF7CCFC6846FFF7A4
:20E00000D9FE01240520ADF82A400A21ADF80A008DF80110FF208DF8000069462846FFF7A9
:20E0200065FE012204212846FFF7FCFE12208DF84C00032014908DF8544013A808F6E2FE5B
:20E04000012211462846FFF700FF17B030BD70B5124EF06810F4802F11D0B0680024C0F3CF
:20E06000054506E030680521C0F30B00FFF73CFF641CAC42F6DBF06840F48060F06070BD9B
:20E0800009F601FA62B6FFF79DFFFFF7ABFF00BF00BF00BF00BF00BFF9E700000000014060
:20E0A0000100000C2DE9F04F0020FD4BFD4DFE49024633F812402C44D4F8B4478E18521CF5
:20E0C000D2B274701F2AF4D355220A70AA2281F820204A7F6FF001035D109246FF2A0AD1DD
:20E0E0008A7FFF2A02D082B103D004E0CA7FFF2A08D0CA7F72B1CA7FFF2A33D04A78FF2A1C
:20E100001FD115E06FF002021EE0CA7FFF2AF5D11A4619E0CA7DFF2AF0D10A7EFF2AEDD188
:20E120004A7EFF2AEAD18A7EFF2AE7D12A460BE00A7AFF2A05D1CA7BFF2A02D18A7DFF2AFB
:20E1400010D0CA7FAA2A0DD0D548D74C801E2E34028001209A4207D0AA4217D082B3012A1C
:20E160002FD00020BDE8F08F4A7A8B7A03EB02222280CA7AD309A3720D7B05EB02224D7B46
:20E1800005EB022262608D7BC97B10E04A7A0B7A03EB022222800A7BD309A372CD7A05EBC3
:20E1A00002228D7A05EB022262608D7B497B002B01EB05212181D5D042F07F416160D1E7A3
:20E1C000FFE7B94D8A784B78223503EB02222A804A7905F10C04D309AB725FEA030E0B79DB
:20E1E00003EB0222CB7803EB02226A609146CA798B7903EB02222A814A7A0B7A03EB0222B8
:20E2000022800A7B4FEAD213A3729B46CB7A03EB02228B7A03EB022CC4F804C08A7B4B7B00
:20E2200003EB0222228104F10C030A7CCC7B04EB02221A80CA7C4FEAD2179F728C7C04EB3B
:20E2400002224C7C04EB02265E604A7D0C7D04EB02221A81CB7D8C7D05F1240204EB03237D
:20E2600013808B7E4FEAD31595724C7E04EB03230C7E04EB032454600B7F91F81B8008EB06
:20E2800003231381897FA2F148080AEB0121A8F8001004D0A2F1240149F07F434B60824915
:20E2A0002E31BBF1000F02D04CF07F434B607E493A3117B146F07F434B60002D3FF47FAF9E
:20E2C00044F07F4151604DE72DE9F0470C462DED088B064615469FED75BA401E4FF0FF38E3
:20E2E000B0EE4B0A042804D2002C02DBB4F5805F05DB82F80080BDEC088BBDE8F0876A4FAD
:20E300006FF00109387855280FD097F82000AA280BD0FFF7C7FE3878552806D097F82000BF
:20E32000AA2802D085F80090E5E75D48801EB0F90020552A7CD0AA2AFCD004FB04F09FED6A
:20E340005C8B594F2E379FED5C9B9FED5DAB4A4510D043469A420DD0A7F10C08A4F500615B
:20E3600007F10C0907F1180A4AB1012A61D0FC202870C0E7022E7DD085F80080BBE7012E79
:20E3800061D0022E76D0032E02D0042E59D10CE00C4601FB04F000F087FB53EC182B00F065
:20E3A0002BFA41EC180B4D460BE00C4601FB04F000F07AFB53EC182B00F01EFA41EC180BE9
:20E3C0005546B5F9000000F06FFB53EC182B00F083FB00F037F906466868604300F064FB7C
:20E3E00053EC192B00F008FA41EC180B304600F05BFD53EC182B00F057F900F023F9044682
:20E40000B5F9080000F050FB53EC1A2B00F0F4F941EC180B204600F047FD53EC182B00F04E
:20E4200043F900F00FF900EE100AB1EE400A62E7E0E0012E07D0022E46D0032E7DD0042EB2
:20E440007CD02B7057E700F02FFB53EC182B00F0D3F941EC180B4546B8F9000000F024FBA4
:20E4600053EC182B00F038FB00F0ECF806466868604300E028E000F017FB53EC192B00F007
:20E48000BBF941EC180B304600F00EFD53EC182B00F00AF900F0D6F80446B5F908003CE0B8
:20E4A000069820000020200052982000000000000000000084D7974100000000006AF8407F
:20E4C000000000000000244000F0EEFA53EC182B00F092F941EC180BB7F9000000F0E4FA35
:20E4E00053EC182B00F0F8FA00F0ACF805467868604300F0D9FA53EC192B00F07DF941EC7D
:20E50000180B284600F0D0FC53EC182B00F0CCF800F098F80446B7F9080000F0C5FA53EC08
:20E520001A2B00F069F941EC180B204600F0BCFC53EC182B00F0B8F801E00DE019E000F00D
:20E5400081F800EE100AB5EEC00AF1EE10FABFF4EBAEB0EE4B0ACEE60C4601FB04F000F0BF
:20E56000A3FA53EC182B00F047F941EC180B4D460BE00C4601FB04F000F096FA53EC182B3A
:20E5800000F03AF941EC180B5546B5F9000000F08BFA53EC182B00F09FFA00F053F80646B8
:20E5A0006868604300F080FA53EC192B00F024F941EC180B304600F077FC53EC182B00F053
:20E5C00073F800F03FF80446B5F9080000F06CFA53EC1A2B00F010F941EC180B204600F030
:20E5E00063FC53EC182B00F05FF800F02BF800EE100A80E6FD20BBE610B5104C207855287E
:20E600000CD094F82000AA2808D0FFF74BFD2078552803D094F82000AA2808D10848B0F952
:20E620000000552803D0AA2801D0012801D0002010BD0248801E008810BD000052982000B9
:20E640000498200021F00042A2F16052B2F5801F01F0004328BFD2F17F6C0BD95FEA001C0E
:20E6600043EAC20242EB507018BF704728BF20F001007047B2F5801FBCBF184670474FEA70
:20E68000410C1CF5001F02D2084600F083BC70B500F0CCFA00000089FFF7F6BF4FF000401E
:20E6A000A0F580007047000010B591EA030F48BF83F0004300F11683841A71EB030C05D215
:20E6C000121943EB0C03001B61EB0C01DFF824E14FEA1154A4EB135C1EEA430F18BF9EEA2D
:20E6E000445F73D023EA0E03DCF1200E21EA045143F4801332D322FA0CFE10EB0E0023FAA0
:20E700000CFE41EB0E01CCF1200E03FA0EFE10EB0E0051F10001B1F5801FCCF1200E32D240
:20E7200001EB045112FA0EF2BDE8104058BF7047401C38BF5FEA420218BF7047002814BF60
:20E7400020F0010041F100014FEA410313F5001F38BF7047A1F1C04100F0B6BA012A43EBD7
:20E760000302ACF1200CDCF11F0E32BF4FF0000E23FA0CF310EB030041EB0451B4EB115FE9
:20E78000D0D0A1EB045101F5801149085FEA300001EB04510ED350F1000038BF12FA0EFE35
:20E7A00008D1BDE81040C9E7401C38BF5FEA4202CAD1C3E7BDE810404FEA410313F5001F1D
:20E7C00038BF7047A1F1C04100F07EBA9EEA445F08D011EA5E0FBDE8104004BF01F000417B
:20E7E00000207047BDE8104070B500F01FFA00BF64FBBE3E0000E0FF2DE9C04130B4DFF854
:20E80000A0C23CEA111418BF3CEA131400F0EC8081EA03051CEA111444EAD57418BF1CEAD9
:20E82000131500F0C780A4EB05044FF0004545EAC12145EAC32341EA505143EA525304F1A4
:20E840007F74994204F500344FEAC0204FEAC22208BF904200F09C804FEA13650FF24016DA
:20E86000765D4FEA134506FB05F7C7F1807706FB07F74FEAD737A7FB03687642C8F5803808
:20E88000A7FB06CE38BFA8F1010807FB08E64FF0000EA6FB028CE6FB03CEDCF1000CCEF1B3
:20E8A000004E38BFAEF1010EA6FB0C584FF000074FF00005E6FB0E87A1FB08C6A0FB07CE86
:20E8C00016EB0E0645F10005E1FB076515F1E04E7EBFA4F580345FEA46066D4116F1800711
:20E8E00045F100054FEA17274FEA066647EA0567A6F1DE46B6F1805F4FEA15251FD93846FA
:20E9000024F0010C05EBC471BCF1FE6F01EB0C1102D8F0BCBDE8008124425CBF01F5801ECD
:20E920009EEAC47F02D4F0BCBDE80081244238D4F0BCA1F1C041BDE8004100F0C5B94FEA26
:20E94000D22242EA43524FEAD323A7FB02864FEAD02040EA415007FB03661EEA0E0F4FEAFC
:20E96000D12105FB026658BFA6EB0056B6EB00564FEA520E4EEAC37E18EB0E0E56EB530E75
:20E98000BDD518EB02085E417F1C55F10005B6E74FF480154FF000074FF000064FF000080C
:20E9A000ADE7F0BC4FF0000001F1C04101F00041BDE8008111EA0C1F0CEA131500D00CE08D
:20E9C00013EA0C1F00F025804FF00000F0BC81EA030101F00041BDE80081F0BCBDE8004136
:20E9E00081EA030100F070B9F0BCBDE8004170B500F01CF9097EFC3E00F007B881EA0301F4
:20EA00004FF0000001F00041704781EA030100F05BB9F0BCBDE800414FF000002149704769
:20EA2000FFFDFBF9F7F5F4F2F0EEEDEBE9E8E6E4E3E1E0DEDDDBDAD8D7D5D4D3D1D0CFCD47
:20EA4000CCCBCAC8C7C6C5C4C2C1C0BFBEBDBCBBBAB9B8B7B6B5B4B3B2B1B0AFAEADACAB5B
:20EA6000AAA9A8A8A7A6A5A4A3A3A2A1A09F9F9E9D9C9C9B9A9999989797969595949393DC
:20EA8000929191908F8F8E8E8D8C8C8B8B8A8989888887878685858484838382828181805F
:20EAA0000000FF070000F87F10F0004248BF4042B0FA80F310FA03F10AD0C3F11D0303F54D
:20EAC00080634FEA415002EB035202EBD12170474FF0000070470000DFF848C170B51CEAB0
:20EAE000111E1EBF1CEA13159EEA0C0F95EA0C0F00F06F8081EA030423EA4C134EEAD47E58
:20EB000021EA4C1141F4801143F48013AE44A1FB024CA0FB0365AEF17F7E361955EB0C05E2
:20EB2000A1FB034C4CF10003A0FB021C16EB0C06654153F10003094218BF46F0010613F48B
:20EB4000007F0BD14FEA03314FEA0530340341EA155140EA16506FF003020AE04FEAC321BC
:20EB60004FEAC520F40241EA555140EA56506FF0020202EB2E4201EB025585EACE710AD055
:20EB80005FEA440C18BF24F0004450F1000041F1000120EAD47040F2FE7C624500D270BD99
:20EBA000A84214BF4FF080444FF04044002E08BF0024BEF1806FA8BFA1F1C041BDE87040CC
:20EBC00080F282804FF0000001F1C04101F0004170479EEA0C0F0CEA131518BF95EA0C0F74
:20EBE00006D04FF0000081EA030E0EF0004170BD00F01CF88900013E00F007B800F009B8EC
:20EC00004FEA430C5FEA5C5C08D081EA030100F05BB84FEA410C5FEA5C5CF6D14FF0000094
:20EC2000014970470000FF070000F87F0EF1020E2EF0030E5EF8046B364205D4012A43EBA9
:20EC4000030515F5001F12D8012841EB010C1CF5001F0CD80ED14FEAD17C15F5001F0CEB9E
:20EC60004C0C0CF1020C08BF4CEBD37C04E04FF0080C01E04FEAD37C0CEB4C0526FA05F6E1
:20EC800006F00706B6F1040C06D20EEB860CBDE870404CF0010C6047DFE80CF0090B020237
:20ECA0004FF000414FF00000A1F5002170BD19461046012851EB010418BFD4F5001484BF9B
:20ECC000002001F0004170BD0808A0F500114FEA3101704710B591EA030F48BF83F00043CE
:20ECE0003FF5EAAC841A71EB030C07D212198CF0004C43EB0C03001B61EB0C01DFF8A4E168
:20ED00004FEA1154A4EB135C1EEA430F18BF9EEA445F00F0B08023EA6E03524221EA045169
:20ED2000C3EB6E0338BF5B1EDCF1200E25D322FA0CFE10EB0E0043FA0CFE41EB0E01CCF1E3
:20ED4000200E03FA0EFE10EB0E0051F10001CCF1200E29D412FA0EF201EB0451BDE8104006
:20ED600058BF7047401C1CBFB2F1004F704700280CBF491C20F00100704712EB020E43EB8A
:20ED8000030218BF4FF0010E4EEA4202ACF1200CDCF11E0E54D943FA0CFE10EB0E0051F14C
:20EDA000FF31CCF11E0ED5D50EF1010E12FA0EFE404141EB010101EB445C5FEA5C5C10D945
:20EDC00010EBDE7001EB045138BFBEF1004FBDE8104018BF704700280CBF491C20F00100C8
:20EDE000704730D24FEAD42C11F5001124F400641BD0B1FA81F20B3AA41AA41ED2F12003DA
:20EE0000914030FA03F31943904001EBCC71002C01EB0451BDE81040A8BF704701F1C04139
:20EE20004FF0000001F000417047B0FA80F310FA03F100D110BDE41A173C4805C90AE4E7B5
:20EE400001EB045110BD491001EB0451BDE810404FEA300002E04FF0000170474A0008BFC2
:20EE60000042F8D0B2F5001F28BF704701F000414FF0000070479EEA445F07D011EA5E0F92
:20EE8000BDE8104004BF002100207047BDE8104070B5FFF7CBFE00BF40DFF63E83F0004123
:20EEA000104670470000E0FF43004FEAD30C4FEA3C0C43401FBF40070CF1605113F0FE4FE4
:20EEC00070471CF0006F03D100200CF0004170470CF0004343EA507010B540EACC0000F041
:20EEE0000EF800BF000000924FEA0001FFF7ECBE4FF000414FF00000A1F5002170470EF1B5
:20EF0000020E2EF0030E5EF8044B244204D44FEA4102B2F17F4F11D84FEA4003B3F17F4F0B
:20EF20000CD80ED14FEAD07CB2F17F4F0CEB4C0C0CF1020C08BF4CEBD17C04E04FF0080C3C
:20EF400001E04FEAD17C0CEB4C0324FA03F404F00704B4F1040C06D20EEB840CBDE81040E5
:20EF60004CF0010C6047DFE80CF0070802024FF00040A0F5800010BD0846420018BFD2F140
:20EF8000807288BF00F0004010BD4FF04070E1EE100A7047FF2141EAD050C00570470000C5
:20EFA00001D1850E01000000077E200098962000449720008C9620004C972000F096200012
:20EFC0006497200058972000E0962000E0962000E0962000E096200080962000389720008A
:20EFE000E0962000A8962000089720001C9720008896200070962000F0952000C495200009
:20F0000024972000D8962000C49620005C9620001C9620003C962000A09520006C952000C1
:20F020007C96200064952000989520005C95200090952000789620001097200074952000C4
:20F04000A8952000D4952000F8952000249620004496200008962000E4952000A496200098
:20F06000B895200084952000CC95200014962000349620005496200068962000FC962000DB
:20F08000E896200030972000B09620009096200070972000CC962000B896200084962000EE
:20F0A00049324330000000005350493000000000554152543000000047444D4130204368C6
:20F0C000616E6E656C3000004750494F5F47726F757030004932433100000000535049311B
:20F0E00000000000554152543100000047444D4130204368616E6E656C3100004750494F21
:20F100005F47726F7570310054494D3200000000554152543200000047444D4130204368B4
:20F12000616E6E656C3200004750494F5F47726F7570320054494D330000000047444D418C
:20F1400030204368616E6E656C3300004750494F5F47726F7570330054494D340000000087
:20F160004750494F3400000047444D4130204368616E6E656C34000054494D3500000000B7
:20F180004750494F3500000047444D4130204368616E6E656C35000054494D360000000094
:20F1A00054696D6572342D370000000054494D370000000042544D41430000004144430066
:20F1C00052544300535643004C434400574447004E4D49004C50434F4D500000496E697462
:20F1E00069616C53500000004952000050656E6453560000535049325700000053504F52B2
:20F200005431205258000000493253305F52580053504F5254312054580000004932533005
:20F220005F5458005273766400000000516465636F6465004D656D4D616E61676500000007
:20F240005350495F466C6173680000005379735469636B005065726970686572616C00009F
:20F2600053797374656D0000506C6174666F726D000000004B65797363616E004465627576
:20F28000674D6F6E000000005265736574000000486172644661756C7400000055736167CF
:20F2A000654661756C7400004275734661756C74000000005054415F4D61696C626F7800B7
:20F2C0005363656E655F42005363656E655F4300426F6F744F6E6365000000008C972000B3
:20F2E0008803810048048100A49820006499200064992000C00000000000000000000000DF
:20F300007C9720004804810048048100A4982000A4982000A498200000000000000000000C
:20F3200000000000849720004804810048048100A4982000A4982000A498200000000000E4
:20F340000000000000000000AA00DD00DE00DF00E000E100E200E300E400E500E600E7004D
:20F36000E800E900EA00EB00EC00ED00EE00EF00F000F100F200F300F400F500F600F70095
:20F38000F800F900FA00FB002DE9F043BDB0402226492DA850F67AFB2449B422403168460E
:20F3A00050F674FB24494FF40010214D214F096806460024B14201D0FBF5E8F94FF00558E8
:20F3C000DFF8789027E0012C24D055F824001C4988421FD0F0B1102C09D22DA850F824108E
:20F3E0004046FEF5B4FA0346012216490BE0684600EB840050F8401C4046FEF5A8FA1149FA
:20F400000122034624314846FEF59BF855F8240046F82400641CB4EB970FD4D3BFF35F8F38
:20F42000BFF34F8F3DB0BDE8F08300006894200050E68000F400000008ED00E00101102169
:08F44000417D2000200080083E
:00000001FF
